:03000000020946AC
:0C094600787FE4F6D8FD7581110208F6F8
:0A0952003F065B4F666D7D077F6F67
:10092700D3EF9400EE94004015E4FCFD0DBD0001EB
:0E0937000CED647D4C70F5EF1F70E51E80E244
:01094500228F
:1008F60078087C007D007BFF7A0979527E007F0AAA
:100906001208D0E4FBFA74082BF8E6F5807FF47E33
:10091600011209270BBB00010AEB640A4A70E78043
:01092600E2EE
:10080000E709F608DFFA8046E709F208DFFA803EDA
:1008100088828C83E709F0A3DFFA8032E309F608C7
:10082000DFFA8078E309F208DFFA807088828C832F
:10083000E309F0A3DFFA806489828A83E0A3F608E3
:10084000DFFA805889828A83E0A3F208DFFA804CBD
:1008500080D280FA80C680D4806980F28033801094
:1008600080A680EA809A80A880DA80E280CA8033FD
:1008700089828A83ECFAE493A3C8C582C8CCC58375
:10088000CCF0A3C8C582C8CCC583CCDFE9DEE78045
:100890000D89828A83E493A3F608DFF9ECFAA9F0C4
:1008A000EDFB2289828A83ECFAE0A3C8C582C8CC1A
:1008B000C583CCF0A3C8C582C8CCC583CCDFEADE33
:1008C000E880DB89828A83E493A3F208DFF980CC95
:1008D00088F0EF60010E4E60C388F0ED2402B4048E
:1008E0000050B9F582EB2402B4040050AF23234535
:0608F00082239008507302
:00000001FF
