:03000000020800F3
:0C080000787FE4F6D8FD758115020847EA
:0C0916003F065B4F666D7D077F6F40BFA2
:0409220002140000BB
:1008ED00E4F508F509D2AFD2A8D28874162515F50E
:0D08FD008274093514F583E493F5A080EEB4
:0300030002088C64
:10088C00C0E0C0F0C083C082C0D075D000C000C032
:10089C0001C002C003C004C005C006C0070515E5B1
:1008AC00157002051412090AD007D006D005D00421
:1008BC00D003D002D001D000D0D0D082D083D0F0E1
:0308CC00D0E03247
:1008CF00D3EF9400EE940040147D707C00ED1D700A
:0D08DF00011CED4C70F7EF1F70E61E80E36A
:0108EC0022E9
:0C090A00C2A37F327E001208CFD2A322CD
:10080C000208EDE493A3F8E493A34003F68001F20D
:10081C0008DFF48029E493A3F85407240CC8C333ED
:10082C00C4540F4420C8834004F456800146F6DFBC
:10083C00E4800B0102040810204080900922E47E21
:10084C00019360BCA3FF543F30E509541FFEE493B1
:10085C00A360010ECF54C025E060A840B8E493A378
:10086C00FAE493A3F8E493A3C8C582C8CAC583CAA3
:10087C00F0A3C8C582C8CAC583CADFE9DEE780BE5B
:0109260000D0
:00000001FF
