:0300000002090DE5
:0C090D00787FE4F6D8FD75810902088BA4
:0C0919003F065B4F666D7D077F6F40BF9F
:10088B00E4F508F509E4F508F509E509643C4508C4
:10089B007004F508F509AE08AF097C007D0A120853
:1008AB000074192DF58274093CF583E493F5A0AE21
:1008BB0008AF097C007D0A12080074192FF58274A9
:1008CB00093EF583E493F5807FE87E031208EF057C
:1008DB0009E50970020508D3943CE508648094800F
:0408EB0040A880A100
:1008EF00D3EF9400EE940040147D707C00ED1D70EA
:0D08FF00011CED4C70F7EF1F70E61E80E34A
:01090C0022C8
:10080000C2D5EC30E709B2D5E4C39DFDE49CFCEE13
:1008100030E715B2D5E4C39FFFE49EFE120836C34D
:10082000E49DFDE49CFC800312083630D507C3E448
:060830009FFFE49EFE2282
:10083600BC000BBE0029EF8DF084FFADF022E4CCA6
:10084600F875F008EF2FFFEE33FEEC33FCEE9DEC6F
:10085600984005FCEE9DFE0FD5F0E9E4CEFD22EDB5
:10086600F8F5F0EE8420D21CFEADF075F008EF2FFF
:10087600FFED33FD4007985006D5F0F222C398FDF0
:050886000FD5F0EA228D
:00000001FF
