:03000000020CF9F6
:0C0CF900787FE4F6D8FD758116020D40EE
:0B0E99007714B3B6D4E6E734F7F60098
:100E85000110000112000111000408000000000219
:030E950015000045
:100E1F00120E54E4F511E4F512E4F510E50870052F
:100E2F00120C4D80F7E4F5080510E510D3943B4004
:100E3F00EB0512E512D3943B40DF0511E511D39476
:050E4F001840D380CE25
:100E5400758902E4F598758C80758A80D2A9D2A828
:0C0E6400D2AAD288D2AF75A0FF020B9971
:100B9900AC12E4120A08E4FBFA79C878421208F8A0
:100BA900C004C005C006C007AC10E4120A08D0038F
:100BB900D002D001D000120807C004C005C006C089
:100BC90007AC11E4120A087B007A40791C784612B6
:100BD90008F8D003D002D001D000120807120A3C4D
:100BE9008F0F8E0E8D0D8C0CE4F513D290E51364E6
:100BF900026005E513B405057599808038E47B0A20
:100C0900FAF9F8AF0FAE0EAD0DAC0C120AF97499E2
:100C19002BF582740E3AF583E493F599AF0FAE0E76
:100C2900AD0DAC0CE47B0AFAF9F8120AF98F0F8EB4
:100C39000E8D0D8C0C3099FDC299C2900513E513E8
:040C4900B408A82221
:100C4D00AFA0EF24417003020CDC24E0606924F0B6
:100C5D00604D24F4603424FE601B146003020CF814
:100C6D00E5A0F470FBE510D3943A500405108042D2
:100C7D00E4F510803DE5A0F470FBE512D3943A50F5
:100C8D000405128045E4F5128040E5A0F470FBE503
:100C9D0011D39416500405118048E4F5118043E5F5
:100CAD00A0F470FBE510C394024004151080037589
:100CBD00103B750901802EE5A0F470FBE512C3947D
:100CCD000140041512800375123B750A018016E56B
:100CDD00A0F470FBE511C394014004151180037558
:0C0CED001117750B01120B99120EA422B6
:090EA400D2807F467E00020E7030
:100E7000D3EF9400EE9400400B7D70DDFEEF1F7009
:040E8000EF1E80ECF5
:010E8400224B
:03000300020EAD3D
:070EAD00C2A8B28CD2A832EA
:03000B00020D855E
:100D8500C0E0C0F0C083C082C0D075D000C000C034
:100D950001C002C003C004C005C006C0070516E5B2
:100DA5001670020515B42011E515B41C0C75150057
:100DB500751600750801120B99D007D006D005D01D
:100DC50004D003D002D001D000D0D0D082D083D0BF
:040DD500F0D0E03248
:03001300020DD902
:100DD900C0E0C0F0C083C082C0D075D000C000C0E0
:100DE90001C002C003C004C005C006C007C28C759B
:100DF9001000751200751100120B99D007D006D09A
:100E090005D004D003D002D001D000D0D0D082D0F8
:060E190083D0F0D0E032AE
:10080000020AA8E86480F8E933E83360110460F074
:10081000ED33EC337009E8FCE9FDEAFEEBFF22045E
:1008200060DED3EB9FEA9EE99DE8C2E78CF0C2F759
:1008300095F0400CE8CCF8E9CDF9EACEFAEBCFFB25
:10084000120A7385D0F05804700320D5B3E8047001
:10085000075002B2D5020AB292D5EC0460F7E4CC9C
:10086000C0E0C398F8603B94186008400DD0E0FBEE
:10087000020A8AE4FBFAC9FC8028E830E406E4C9ED
:10088000FBE4CAFCE830E305E4C9CACBFCE8540742
:100890006010F8C3E913F9EA13FAEB13FBEC13FC4D
:1008A000D8F130F52FC3E49CFCEF9BFFEE9AFEEDF0
:1008B00099FDD0E0FBEF4E4D4C701222DB03020A93
:1008C000AFEC2CFCEF33FFEE33FEED33FDED30E704
:1008D000EB020A8AEF2BFFEE3AFEED39FDD0E0FB8A
:1008E00050130BBB0003020AB2ED13FDEE13FEEF33
:0808F00013FFEC13FC020A8A5D
:1008F800EC4D6011E8497017ED33EC3304600DE4FA
:10090800FCFFFEFD22E933E8330470F8020AA8125E
:100918000A7358046009E4CC24815006285009025F
:100928000AB2284003020AAFC0E0EB4A7044B9801B
:1009380006D0E0FB020A9EEF4E701CBD8008EBFF5C
:10094800EAFEE9FD80EBE98DF0A4FEE5F00209E19D
:10095800E9CDF9EAFEEBFFEF89F0A4FCE5F0CE89DA
:10096800F0A42EFFE435F0CD89F0A42DFEE435F097
:100978008067EF4E7005BD80D780C3EF8BF0A4ACC5
:10098800F0EE8BF0A42CFCE435F0F8EF8AF0A42C00
:10099800E5F038FCE433CB8DF0A42CFCE5F03BF813
:1009A800EE8AF0A42CFCE5F038F8E433CF89F0A403
:1009B8002CFCE5F038CF3400CE89F0A42FFFE5F009
:1009C8003EFEE433C98DF0A42EFEE5F039CD8AF061
:1009D800A42FFFE5F03EFEE43DFD33D0E0FB5007D9
:1009E8000BBB000F020AB2EC2CFCEF33FFEE33FE18
:0609F800ED33FD020A8A46
:1009FE0075F020800E75F010800575F0087D007E74
:100A0E00007F003392D530D503120B8BEC334010A0
:100A1E00EF33FFEE33FEED33FDEC33FCD5F0ED227C
:0E0A2E00E5F0247EA2D513CC92E7CDCEFF22B8
:100A3C00EDD2E7CD33EC3392D524814006E4FFFEB2
:100A4C00FDFC22FCE4CFCECDCC24E0501174FF8011
:100A5C00EDC3CC13CCCD13CDCE13CECF13CF0470AE
:070A6C00F030D5DE020B8B18
:100A7300E9D2E7C933E833F892D5EDD2E7CD33ECC9
:070A830033FC5002B2D52242
:100A8A00EC30E7100FBF000C0EBE00080DBD0004CD
:100A9A000BEB6014A2D5EB13FCED92E7FD2274FF79
:100AAA00FCFDFEFF22E480F8A2D574FF13FC7D80D2
:030ABA00E480EFE6
:100D0500020E1FE493A3F8E493A34003F68001F2D7
:100D150008DFF48029E493A3F85407240CC8C333EF
:100D2500C4540F4420C8834004F456800146F6DFBE
:100D3500E4800B0102040810204080900E85E47EBB
:100D4500019360BCA3FF543F30E509541FFEE493B3
:100D5500A360010ECF54C025E060A840B8E493A37A
:100D6500FAE493A3F8E493A3C8C582C8CAC583CAA5
:100D7500F0A3C8C582C8CAC583CADFE9DEE780BE5D
:010E98000059
:100ABD0075F008758200EF2FFFEE33FECD33CDCCF0
:100ACD0033CCC58233C5829BED9AEC99E582984073
:100ADD000CF582EE9BFEED9AFDEC99FC0FD5F0D650
:100AED00E4CEFBE4CDFAE4CCF9A88222B800C1B97A
:100AFD000059BA002DEC8BF084CFCECDFCE5F0CBB8
:100B0D00F97818EF2FFFEE33FEED33FDEC33FCEBF0
:100B1D0033FB10D703994004EB99FB0FD8E5E4F9AB
:100B2D00FA227818EF2FFFEE33FEED33FDEC33FC98
:100B3D00C933C910D7059BE99A4007EC9BFCE99A8C
:100B4D00F90FD8E0E4C9FAE4CCFB2275F010EF2FD1
:100B5D00FFEE33FEED33FDCC33CCC833C810D707D1
:100B6D009BEC9AE899400AED9BFDEC9AFCE899F80C
:0E0B7D000FD5F0DAE4CDFBE4CCFAE4C8F9229F
:0E0B8B00C3E49FFFE49EFEE49DFDE49CFC227B
:00000001FF
