:030000000208E70C
:0C08E700787FE4F6D8FD75812302092E0D
:100B2C00021D0000011C3D011B050F083031323342
:0B0B3C0034353637383920487A2E0057
:100A5200120B8240FB120AAAE58DC394E04036AF26
:100A62008DEFFEAD8B7C00E42DFFEC3EFEE4FDE558
:100A72001A2FF51AE5193EF519ED3518F518EC356A
:100A820017F517E58AC3951C4006E58A951CF58A79
:100A9200E4F58DF58BE51E451D70BDAF1AAE19AD9F
:080AA20018AC1712097380B0B3
:03000B000209F6F1
:1009F600C0E0C0D075D000C004C005C006C0070561
:100A06001EE51E7002051DB4E035E51DB40E3075F9
:100A16001D00751E00AF8DEFFEAD8B7C00E42DFF33
:100A2600EC3EFEE4FDE51A2FF51AE5193EF519ED43
:100A36003518F518EC3517F517758D00758B00D040
:0C0A460007D006D005D004D0D0D0E0329C
:080973008F228E218D208C1FC4
:10097B00851A2285192185182085171F752309E4EF
:10098B007B0AFAF9F8AF22AE21AD20AC1F12085545
:10099B0074082BF8E6FBE4FDAF23120B48AF22AE35
:1009AB0021AD20AC1FE47B0AFAF9F81208558F220F
:1009BB008E218D208C1F1523E523C3940350C0ABD0
:1009CB0012E4FD7F0A120B48AB13E4FD7F0B120BF5
:1009DB0048AB14E4FD7F0C120B487FC87E00120B52
:0A09EB000EE4F51AF519F518F517DA
:0109F50022DF
:0D0B8200C290D291C2A500D2A5E580332219
:0C0B8F007F01120B60AF1B7E00020B0EFA
:100AAA007F38120B60120B0A7F08120B60120B0AB6
:100ABA007F06120B60120B0A120B8F7F0C120B604F
:100ACA00120B0A758952E4F598758C0E758A0EF523
:0C0ADA008DF58BD2AFD2A9D28CD28E2227
:100B6000120B8240FBC290C2918F80D2A500C2A519
:010B70002262
:100B7100120B8240FBD290C2918F80D2A500C2A5F8
:010B81002251
:100AE600AE07ED7005EE24808003EE24C0FF120BE6
:100AF60060120800FF600C120B71740129F9E43AC8
:040B0600FA80EE2261
:100B4800AE07AC03ED7005EE24808003EE24C0FFF1
:080B5800120B60AF04020B71E7
:040B0A00AF1B7E009F
:100B0E00D3EF9400EE940040147D707C00ED1D70C8
:0D0B1E00011CED4C70F7EF1F70E61E80E328
:010B2B0022A7
:1008F300020A52E493A3F8E493A34003F68001F2BF
:1009030008DFF48029E493A3F85407240CC8C33305
:10091300C4540F4420C8834004F456800146F6DFD4
:10092300E4800B0102040810204080900B2CE47E2D
:10093300019360BCA3FF543F30E509541FFEE493C9
:10094300A360010ECF54C025E060A840B8E493A390
:10095300FAE493A3F8E493A3C8C582C8CAC583CABB
:10096300F0A3C8C582C8CAC583CADFE9DEE780BE73
:010B470000AD
:10080000BB010689828A83E0225002E722BBFE02F6
:09081000E32289828A83E4932229
:1008190075F008758200EF2FFFEE33FECD33CDCC96
:1008290033CCC58233C5829BED9AEC99E582984019
:100839000CF582EE9BFEED9AFDEC99FC0FD5F0D6F6
:10084900E4CEFBE4CDFAE4CCF9A88222B800C1B920
:100859000059BA002DEC8BF084CFCECDFCE5F0CB5E
:10086900F97818EF2FFFEE33FEED33FDEC33FCEB97
:1008790033FB10D703994004EB99FB0FD8E5E4F952
:10088900FA227818EF2FFFEE33FEED33FDEC33FC3F
:10089900C933C910D7059BE99A4007EC9BFCE99A33
:1008A900F90FD8E0E4C9FAE4CCFB2275F010EF2F78
:1008B900FFEE33FEED33FDCC33CCC833C810D70778
:1008C9009BEC9AE899400AED9BFDEC9AFCE899F8B3
:0E08D9000FD5F0DAE4CDFBE4CCFAE4C8F92246
:00000001FF
