:030000000208CE25
:0C08CE00787FE4F6D8FD7581130209154F
:0B0A7E007714B3B6D4E6E734F7F600B7
:070A8900020D0000010C3D0D
:10095A00758952E4F598758C06758A06F58DF58BBE
:10096A00D2AFD2A9D28CD28EE58DC394E04036AFF5
:10097A008DEFFEAD8B7C00E42DFFEC3EFEE4FDE541
:10098A000B2FF50BE50A3EF50AED3509F509EC35AD
:10099A0008F508E58AC3950C4006E58A950CF58AA0
:1009AA00E4F58DF58BE50E450D70BDAF0BAE0AADC6
:0809BA0009AC081209C280B06B
:03000B00020A22C4
:100A2200C0E0C0D075D000C004C005C006C0070534
:100A32000EE50E7002050DB4A035E50DB40F30754C
:100A42000D00750E00AF8DEFFEAD8B7C00E42DFF27
:100A5200EC3EFEE4FDE50B2FF50BE50A3EF50AED53
:100A62003509F509EC3508F508758D00758B00D050
:0C0A720007D006D005D004D0D0D0E03270
:0809C2008F128E118D108C0FB5
:1009CA00850B12850A1185091085080FE4F513E4D1
:1009DA007B0AFAF9F8AF12AE11AD10AC0F12083C4F
:1009EA00747E2BF582740A3AF583E493F599AF1273
:1009FA00AE11AD10AC0FE47B0AFAF9F812083C8F7D
:100A0A00128E118D108C0F0513E513B408C1E4F58D
:070A1A000BF50AF509F508D0
:010A210022B2
:1008DA0002095AE493A3F8E493A34003F68001F2D1
:1008EA0008DFF48029E493A3F85407240CC8C3331F
:1008FA00C4540F4420C8834004F456800146F6DFEE
:10090A00E4800B0102040810204080900A89E47EEA
:10091A00019360BCA3FF543F30E509541FFEE493E2
:10092A00A360010ECF54C025E060A840B8E493A3A9
:10093A00FAE493A3F8E493A3C8C582C8CAC583CAD4
:10094A00F0A3C8C582C8CAC583CADFE9DEE780BE8C
:010A90000065
:1008000075F008758200EF2FFFEE33FECD33CDCCAF
:1008100033CCC58233C5829BED9AEC99E582984032
:100820000CF582EE9BFEED9AFDEC99FC0FD5F0D60F
:10083000E4CEFBE4CDFAE4CCF9A88222B800C1B939
:100840000059BA002DEC8BF084CFCECDFCE5F0CB77
:10085000F97818EF2FFFEE33FEED33FDEC33FCEBB0
:1008600033FB10D703994004EB99FB0FD8E5E4F96B
:10087000FA227818EF2FFFEE33FEED33FDEC33FC58
:10088000C933C910D7059BE99A4007EC9BFCE99A4C
:10089000F90FD8E0E4C9FAE4CCFB2275F010EF2F91
:1008A000FFEE33FEED33FDCC33CCC833C810D70791
:1008B0009BEC9AE899400AED9BFDEC9AFCE899F8CC
:0E08C0000FD5F0DAE4CDFBE4CCFAE4C8F9225F
:00000001FF
