:030000000208E70C
:0C08E700787FE4F6D8FD75812302092E0D
:060BA30048656C6C6F0058
:100B3400021D0000011C3D011B050F08303132333A
:0B0B440034353637383920487A2E004F
:1009F200120B8A40FB120AB27BFF7A0B79A3E4FD49
:100A0200FF120AEEE58DC394E04036AF8DEFFEADE6
:100A12008B7C00E42DFFEC3EFEE4FDE51A2FF51A77
:100A2200E5193EF519ED3518F518EC3517F517E50A
:100A32008AC3951C4006E58A951CF58AE4F58DF576
:100A42008BE51E451D70BDAF1AAE19AD18AC17125D
:040A5200097380B0F4
:100AB2007F38120B68120B127F08120B68120B128E
:100AC2007F06120B68120B12120B977F0C120B6827
:100AD200120B12758952E4F598758C80758A80F52F
:0C0AE2008DF58BD2AFD2A9D28CD28E221F
:03000B00020A5690
:100A5600C0E0C0D075D000C004C005C006C0070500
:100A66001EE51E7002051DB42135E51DB41C30754A
:100A76001D00751E00AF8DEFFEAD8B7C00E42DFFD3
:100A8600EC3EFEE4FDE51A2FF51AE5193EF519EDE3
:100A96003518F518EC3517F517758D00758B00D0E0
:0C0AA60007D006D005D004D0D0D0E0323C
:0D0B8A00C295D296C29700D297E5A0332203
:0C0B97007F01120B68AF1B7E00020B16E2
:100B6800120B8A40FBC295C2968FA0D29700C297FB
:010B7800225A
:100B7900120B8A40FBD295C2968FA0D29700C297DA
:010B89002249
:100AEE00AE07ED7005EE24808003EE24C0FF120BDE
:100AFE0068120800FF600C120B79740129F9E43AB0
:040B0E00FA80EE2259
:100B5000AE07AC03ED7005EE24808003EE24C0FFE9
:080B6000120B68AF04020B79CF
:080973008F228E218D208C1FC4
:10097B00851A2285192185182085171F752309E4EF
:10098B007B0AFAF9F8AF22AE21AD20AC1F12085545
:10099B0074082BF8E6FBE4FDAF23120B50AF22AE2D
:1009AB0021AD20AC1FE47B0AFAF9F81208558F220F
:1009BB008E218D208C1F1523E523C3940350C0ABD0
:1009CB0012E4FD7F0A120B50AB137F0B120B50ABD3
:1009DB00147F0C120B507FC87E00120B16E4F51A15
:0609EB00F519F518F517DF
:0109F10022E3
:040B1200AF1B7E0097
:100B1600D3EF9400EE940040147D707C00ED1D70C0
:0D0B2600011CED4C70F7EF1F70E61E80E320
:010B3300229F
:1008F3000209F2E493A3F8E493A34003F68001F220
:1009030008DFF48029E493A3F85407240CC8C33305
:10091300C4540F4420C8834004F456800146F6DFD4
:10092300E4800B0102040810204080900B34E47E25
:10093300019360BCA3FF543F30E509541FFEE493C9
:10094300A360010ECF54C025E060A840B8E493A390
:10095300FAE493A3F8E493A3C8C582C8CAC583CABB
:10096300F0A3C8C582C8CAC583CADFE9DEE780BE73
:010B4F0000A5
:10080000BB010689828A83E0225002E722BBFE02F6
:09081000E32289828A83E4932229
:1008190075F008758200EF2FFFEE33FECD33CDCC96
:1008290033CCC58233C5829BED9AEC99E582984019
:100839000CF582EE9BFEED9AFDEC99FC0FD5F0D6F6
:10084900E4CEFBE4CDFAE4CCF9A88222B800C1B920
:100859000059BA002DEC8BF084CFCECDFCE5F0CB5E
:10086900F97818EF2FFFEE33FEED33FDEC33FCEB97
:1008790033FB10D703994004EB99FB0FD8E5E4F952
:10088900FA227818EF2FFFEE33FEED33FDEC33FC3F
:10089900C933C910D7059BE99A4007EC9BFCE99A33
:1008A900F90FD8E0E4C9FAE4CCFB2275F010EF2F78
:1008B900FFEE33FEED33FDCC33CCC833C810D70778
:1008C9009BEC9AE899400AED9BFDEC9AFCE899F8B3
:0E08D9000FD5F0DAE4CDFBE4CCFAE4C8F92246
:00000001FF
