:03000000020BCC24
:0C0BCC00787FE4F6D8FD75810B020BE485
:100BBC003F065B4F666D7D077F6F40BF0E0D0B07C9
:0B0BE40075A00F120BD8120AC880FB8E
:060BA100D2B77F017E00C7
:100BA700D3EF9400EE9400400B7D70DDFEEF1F70D5
:040BB700EF1E80ECC1
:010BBB002217
:100AC80085080A85090B7B03EBAE0AAF0B7018FC8F
:100AD8007D0A120A6574BC2DF582740B3CF583E41B
:100AE800934480F58080157C007D0A120A6574BCE9
:100AF8002DF582740B3CF583E493F580AE0AAF0BB9
:100B08007C007D0A120A658E0A8F0BEBFF3395E095
:100B1800FE74C82FF582740B3EF583E493F5A07F2D
:100B28000A7E00120BA775A00F1BC3EB648094808C
:020B38005096D5
:010B3A002298
:0C0BD800D288D2A8D2AF120BA1C2B72263
:03000300020B3BB2
:100B3B00C0E0C0F0C083C082C0D075D000C000C080
:100B4B0001C002C003C004C005C006C007C2A8D2C2
:100B5B00B5AC90E41209B0E4FBFA797A7844120848
:100B6B0000E4FBFA794C78421209091209E48E0869
:100B7B008F09C2B5120BA1C2B7D2A8D007D006D02D
:100B8B0005D004D003D002D001D000D0D0D082D079
:060B9B0083D0F0D0E0322F
:10080000EC4D6011E8497017ED33EC3304600DE4F2
:10081000FCFFFEFD22E933E8330470F8020A5012AF
:100820000A1B58046009E4CC2481500628500902B0
:100830000A5A284003020A57C0E0EB4A7044B980C4
:1008400006D0E0FB020A46EF4E701CBD8008EBFFAD
:10085000EAFEE9FD80EBE98DF0A4FEE5F00208E98F
:10086000E9CDF9EAFEEBFFEF89F0A4FCE5F0CE89D3
:10087000F0A42EFFE435F0CD89F0A42DFEE435F090
:100880008067EF4E7005BD80D780C3EF8BF0A4ACBE
:10089000F0EE8BF0A42CFCE435F0F8EF8AF0A42CF9
:1008A000E5F038FCE433CB8DF0A42CFCE5F03BF80C
:1008B000EE8AF0A42CFCE5F038F8E433CF89F0A4FC
:1008C0002CFCE5F038CF3400CE89F0A42FFFE5F002
:1008D0003EFEE433C98DF0A42EFEE5F039CD8AF05A
:1008E000A42FFFE5F03EFEE43DFD33D0E0FB5007D2
:1008F0000BBB000F020A5AEC2CFCEF33FFEE33FE69
:06090000ED33FD020A3296
:10090600020A5AEC5D046005E859047003020A50B5
:10091600120A1B580460F6EC4860F2EC7004FDFE07
:10092600FF22C860DB2481C85009C39860025006C4
:10093600020A579850CAF582E9294B4A7005AB82DC
:10094600020A4675F0007C1A7880C3EF9BEE9AED9A
:1009560099400DC3EF9BFFEE9AFEED99FDE842F03C
:10096600DC23ACF0D0E0FFD0E0FED0E0FDAB82208F
:10097600E7101BEB60BAEC2CFCEF33FFEE33FEED19
:1009860033FD020A32E803F830E705C0F075F000DF
:10099600EF2FFFEE33FEED33FD40B830E7C280AAFD
:1009A60075F020800E75F010800575F0087D007ECC
:1009B600007F003392D530D503120ABAEC334010CB
:1009C600EF33FFEE33FEED33FDEC33FCD5F0ED22D5
:0E09D600E5F0247EA2D513CC92E7CDCEFF2211
:1009E400EDD2E7CD33EC3392D524814006E4FFFE0B
:1009F400FDFC22FCE4CFCECDCC24E0501174FF806A
:100A0400EDC3CC13CCCD13CDCE13CECF13CF047006
:070A1400F030D5DE020ABA42
:100A1B00E9D2E7C933E833F892D5EDD2E7CD33EC21
:070A2B0033FC5002B2D5229A
:100A3200EC30E7100FBF000C0EBE00080DBD000425
:100A42000BEB6014A2D5EB13FCED92E7FD2274FFD1
:100A5200FCFDFEFF22E480F8A2D574FF13FC7D802A
:030A6200E480EF3E
:100A6500BC000BBE0029EF8DF084FFADF022E4CC75
:100A7500F875F008EF2FFFEE33FEEC33FCEE9DEC3E
:100A8500984005FCEE9DFE0FD5F0E9E4CEFD22ED84
:100A9500F8F5F0EE8420D21CFEADF075F008EF2FCE
:100AA500FFED33FD4007985006D5F0F222C398FDBF
:050AB5000FD5F0EA225C
:0E0ABA00C3E49FFFE49EFEE49DFDE49CFC224D
:00000001FF
