:0300000002146C7B
:0C146C00787FE4F6D8FD75817D0214B392
:0C16110043800000478000004B80000078
:0B1605000277000205722331323334FB
:1008000078667C007D007BFF7A1679117E007F0C74
:100810001213451215EC40FB121544E4F509E4F5FA
:1008200008E4FF1214F8AC07E41211C0E50825E053
:1008300025E02416F81214600508E508C394054065
:10084000E0E4FFFE7D2A7C43AB19AA18A917A8167D
:1008500012113D7033851D31851C30851B2F851A83
:100860002E852135852034851F33851E3285253917
:1008700085243885233785223685293D85283C8582
:10088000273B85263A020CD2E4FFFE7D2A7C43AB4F
:100890001DAA1CA91BA81A12113D703CF52DF52CA0
:1008A000F52B752A42852131852030851F2F851E25
:1008B0002E852535852434852333852232852939B3
:1008C00085283885273785263685193D85183C8546
:1008D000173B85163A020CD2E4FFFE7D2A7C43AB1F
:1008E00021AA20A91FA81E12113D703CF52DF52C40
:1008F000F52B752A4285253185243085232F8522C5
:100900002E85293585283485273385263285193962
:10091000851838851737851636851D3D851C3C851D
:100920001B3B851A3A020CD2E4FFFE7D2A7C43ABC6
:1009300025AA24A923A82212113D703CF52DF52CDF
:10094000F52B752A4285293185283085272F852664
:100950002E851935851834851733851632851D394E
:10096000851C38851B37851A3685213D85203C85B9
:100970001F3B851E3A020CD2E4FFFE7D2A7C43AB6E
:1009800029AA28A927A82612113D703CF52DF52C7F
:10099000F52B752A4285193185183085172F851654
:1009A0002E851D35851C34851B33851A32852139EA
:1009B000852038851F37851E3685253D85243C8555
:1009C000233B85223A020CD2E4FFFE7D3B7C43AB05
:1009D00019AA18A917A81612113D7033851D45854F
:1009E0001C44851B43851A42852149852048851F63
:1009F00047851E4685254D85244C85234B85224AF7
:100A000085295185285085274F85264E020CD2E432
:100A1000FFFE7D3B7C43AB1DAA1CA91BA81A12112B
:100A20003D703CF541F540F53F753E4285214585D9
:100A30002044851F43851E428525498524488523FA
:100A40004785224685294D85284C85274B85264A92
:100A500085195185185085174F85164E020CD2E422
:100A6000FFFE7D3B7C43AB21AA20A91FA81E1211CB
:100A70003D703CF541F540F53F753E428525458585
:100A80002444852343852242852949852848852792
:100A90004785264685194D85184C85174B85164A7E
:100AA000851D51851C50851B4F851A4E020CD2E4C2
:100AB000FFFE7D3B7C43AB25AA24A923A82212116B
:100AC0003D703CF541F540F53F753E428529458531
:100AD0002844852743852642851949851848851766
:100AE00047851646851D4D851C4C851B4B851A4A2E
:100AF000852151852050851F4F851E4E020CD2E462
:100B0000FFFE7D3B7C43AB29AA28A927A82612110A
:100B10003D703CF541F540F53F753E4285194585F0
:100B20001844851743851642851D49851C48851B39
:100B300047851A4685214D85204C851F4B851E4AC9
:100B400085255185245085234F85224E020CD2E401
:100B5000FFFE7D4C7C43AB19AA18A917A8161211E9
:100B60003D7033851D59851C58851B57851A568540
:100B7000215D85205C851F5B851E5A852561852446
:100B80006085235F85225E852965852864852763C6
:100B9000852662020CD2E4FFFE7D4C7C43AB1DAA8D
:100BA0001CA91BA81A12113D703CF555F554F553BC
:100BB000755242852159852058851F57851E5685B7
:100BC000255D85245C85235B85225A8529618528DE
:100BD0006085275F85265E8519658518648517639E
:100BE000851662020CD2E4FFFE7D4C7C43AB21AA49
:100BF00020A91FA81E12113D703CF555F554F55360
:100C00007552428525598524588523578522568556
:100C1000295D85285C85275B85265A85196185189D
:100C20006085175F85165E851D65851C64851B6361
:100C3000851A62020CD2E4FFFE7D4C7C43AB25AAF0
:100C400024A923A82212113D703BF555F554F55304
:100C500075524285295985285885275785265685F6
:100C6000195D85185C85175B85165A851D61851C85
:100C700060851B5F851A5E852165852064851F63FD
:100C8000851E62804DE4FFFE7D4C7C43AB29AA2883
:100C9000A927A82612113D7039F555F554F553755D
:100CA0005242851959851858851757851656851D3E
:100CB0005D851C5C851B5B851A5A852161852060DA
:100CC000851F5F851E5E8525658524648523638574
:100CD00022620509E509C39403500302081EAF69A7
:100CE000AE68AD67AC66AB39AA38A937A836120F23
:100CF00097AB3DAA3CA93BA83A120EA6C004C0057A
:100D0000C006C007AF6DAE6CAD6BAC6AAB35AA3434
:100D1000A933A832120F97D003D002D001D000120D
:100D20000EA6C004C005C006C007AF71AE70AD6F9F
:100D3000AC6EAB31AA30A92FA82E120F97D003D0DA
:100D400002D001D000120EA68F0D8E0C8D0B8C0AD6
:100D5000AF69AE68AD67AC66AB4DAA4CA94BA84A6B
:100D6000120F97AB51AA50A94FA84E120EA6C0045D
:100D7000C005C006C007AF6DAE6CAD6BAC6AAB49C9
:100D8000AA48A947A846120F97D003D002D001D095
:100D900000120EA6C004C005C006C007AF71AE7039
:100DA000AD6FAC6EAB45AA44A943A842120F97D0D1
:100DB00003D002D001D000120EA68F118E108D0F1D
:100DC0008C0EAF69AE68AD67AC66AB61AA60A95F17
:100DD000A85E120F97AB65AA64A963A862120EA65B
:100DE000C004C005C006C007AF6DAE6CAD6BAC6A89
:100DF000AB5DAA5CA95BA85A120F97D003D002D0B2
:100E000001D000120EA6C004C005C006C007AF7115
:100E1000AE70AD6FAC6EAB59AA58A957A856120F59
:100E200097D003D002D001D000120EA6AB0DAA0CB1
:100E3000A90BA80A1210A0AB11AA10A90FA80E1294
:100E40000F971211F48F158E148D138C127F647E00
:100E50000012159475080FE47B0AFAF9F8AF15AE85
:100E600014AD13AC121213C0EB2430FB7D01AF089C
:100E70001215B2AF15AE14AD13AC12E47B0AFAF939
:100E8000F81213C08F158E148D138C121508E508F7
:0F0E9000D3940050C27FF47E0112159402081B08
:101544007F381215CA1215907F081215CA12159009
:101554007F061215CA1215901215F97F0C1215CABE
:08156400121590D293C29022EF
:0D15EC00C2A6D2A5C2A700D2A7E580332277
:0C15F9007F011215CAAF78AE770215947E
:1015CA001215EC40FBC2A6C2A58F80D2A700C2A703
:0115DA0022EE
:1015DB001215EC40FBD2A6C2A58F80D2A700C2A7E2
:0115EB0022DD
:10156C00AE07ED7005EE24808003EE24C0FF12154B
:10157C00CA12136BFF600C1215DB740129F9E43AE3
:04158C00FA80EE22D1
:1015B200AE07AC03ED7005EE24808003EE24C0FF7D
:0815C2001215CAAF040215DB8B
:0214F800AE073D
:1014FA00E4FDC293FCC290EE30E704D2918002C2AE
:10150A00917801AF06EF08800123D8FDFE00D29042
:10151A00ECD3940040177801AF05EF08800123D877
:10152A00FDFD30920543050180035305FE000CBC06
:09153A0009C3D29300C293AF056E
:011543002285
:04159000AF78AE770B
:10159400D3EF9400EE940040147D707C00ED1D7038
:0D15A400011CED4C70F7EF1F70E61E80E398
:0115B1002217
:100E9F00021260E86480F8E933E83360110460F00F
:100EAF00ED33EC337009E8FCE9FDEAFEEBFF2204B9
:100EBF0060DED3EB9FEA9EE99DE8C2E78CF0C2F7B4
:100ECF0095F0400CE8CCF8E9CDF9EACEFAEBCFFB80
:100EDF0012122B85D0F05804700320D5B3E804709C
:100EEF00075002B2D502126A92D5EC0460F7E4CC37
:100EFF00C0E0C398F8603B94186008400DD0E0FB49
:100F0F00021242E4FBFAC9FC8028E830E406E4C987
:100F1F00FBE4CAFCE830E305E4C9CACBFCE854079C
:100F2F006010F8C3E913F9EA13FAEB13FBEC13FCA7
:100F3F00D8F130F52FC3E49CFCEF9BFFEE9AFEED4A
:100F4F0099FDD0E0FBEF4E4D4C701222DB030212E5
:100F5F0067EC2CFCEF33FFEE33FEED33FDED30E7A6
:100F6F00EB021242EF2BFFEE3AFEED39FDD0E0FB24
:100F7F0050130BBB000302126AED13FDEE13FEEFCD
:080F8F0013FFEC13FC021242F7
:100F9700EC4D6011E8497017ED33EC3304600DE454
:100FA700FCFFFEFD22E933E8330470F802126012F9
:100FB700122B58046009E4CC2481500628500902FA
:100FC700126A284003021267C0E0EB4A7044B980F6
:100FD70006D0E0FB021256EF4E701CBD8008EBFFF7
:100FE700EAFEE9FD80EBE98DF0A4FEE5F002108052
:100FF700E9CDF9EAFEEBFFEF89F0A4FCE5F0CE8935
:10100700F0A42EFFE435F0CD89F0A42DFEE435F0F1
:101017008067EF4E7005BD80D780C3EF8BF0A4AC1F
:10102700F0EE8BF0A42CFCE435F0F8EF8AF0A42C5A
:10103700E5F038FCE433CB8DF0A42CFCE5F03BF86D
:10104700EE8AF0A42CFCE5F038F8E433CF89F0A45D
:101057002CFCE5F038CF3400CE89F0A42FFFE5F063
:101067003EFEE433C98DF0A42EFEE5F039CD8AF0BB
:10107700A42FFFE5F03EFEE43DFD33D0E0FB500733
:101087000BBB000F02126AEC2CFCEF33FFEE33FEB2
:06109700ED33FD021242E0
:10109D0002126AEC5D046005E859047003021260E7
:1010AD0012122B580460F6EC4860F2EC7004FDFE51
:1010BD00FF22C860DB2481C85009C3986002500626
:1010CD000212679850CAF582E9294B4A7005AB8226
:1010DD0002125675F0007C1A7880C3EF9BEE9AEDE4
:1010ED0099400DC3EF9BFFEE9AFEED99FDE842F09E
:1010FD00DC23ACF0D0E0FFD0E0FED0E0FDAB8220F1
:10110D00E7101BEB60BAEC2CFCEF33FFEE33FEED7A
:10111D0033FD021242E803F830E705C0F075F00028
:10112D00EF2FFFEE33FEED33FD40B830E7C280AA5E
:10113D0074F8CC6480CCC86480C8F58204604FC359
:10114D00EB9FF5F0EA9E42F0E99D42F0E89C45F0F8
:10115D00603C501DE5825FFFE582D313CB5BCBF482
:10116D002B5582FB50280ABA002409B900200880AB
:10117D001DE5825BFBE582D313CF5FCFF4C3132F45
:10118D005582FF50090EBE00050DBD00010CC3EBCD
:10119D009FF5F0EA9E42F0E99D42F0E89C45F06033
:0911AD0007CC4820E701B3EC2255
:1011B60075F020800E75F010800575F0087D007EB4
:1011C600007F003392D530D503121452EC33401011
:1011D600EF33FFEE33FEED33FDEC33FCD5F0ED22BD
:0E11E600E5F0247EA2D513CC92E7CDCEFF22F9
:1011F400EDD2E7CD33EC3392D524814006E4FFFEF3
:10120400FDFC22FCE4CFCECDCC24E0501174FF8051
:10121400EDC3CC13CCCD13CDCE13CECF13CF0470EE
:07122400F030D5DE02145288
:10122B00E9D2E7C933E833F892D5EDD2E7CD33EC09
:07123B0033FC5002B2D52282
:10124200EC30E7100FBF000C0EBE00080DBD00040D
:101252000BEB6014A2D5EB13FCED92E7FD2274FFB9
:10126200FCFDFEFF22E480F8A2D574FF13FC7D8012
:03127200E480EF26
:10147800020800E493A3F8E493A34003F68001F282
:1014880008DFF48029E493A3F85407240CC8C33375
:10149800C4540F4420C8834004F456800146F6DF44
:1014A800E4800B0102040810204080901605E47EB9
:1014B800019360BCA3FF543F30E509541FFEE49339
:1014C800A360010ECF54C025E060A840B8E493A300
:1014D800FAE493A3F8E493A3C8C582C8CAC583CA2B
:1014E800F0A3C8C582C8CAC583CADFE9DEE780BEE3
:0116100000D9
:10127500E709F608DFFA8046E709F208DFFA803E5B
:1012850088828C83E709F0A3DFFA8032E309F60848
:10129500DFFA8078E309F208DFFA807088828C83B0
:1012A500E309F0A3DFFA806489828A83E0A3F60864
:1012B500DFFA805889828A83E0A3F208DFFA804C3E
:1012C50080D280FA80C680D4806980F28033801015
:1012D50080A680EA809A80A880DA80E280CA80337E
:1012E50089828A83ECFAE493A3C8C582C8CCC583F6
:1012F500CCF0A3C8C582C8CCC583CCDFE9DEE780C6
:101305000D89828A83E493A3F608DFF9ECFAA9F044
:10131500EDFB2289828A83ECFAE0A3C8C582C8CC9A
:10132500C583CCF0A3C8C582C8CCC583CCDFEADEB3
:10133500E880DB89828A83E493A3F208DFF980CC15
:1013450088F0EF60010E4E60C388F0ED2402B4040E
:101355000050B9F582EB2402B4040050AF232345B5
:0613650082239012C57303
:10136B00BB010689828A83E0225002E722BBFE0280
:09137B00E32289828A83E49322B3
:1013840075F008758200EF2FFFEE33FECD33CDCC20
:1013940033CCC58233C5829BED9AEC99E5829840A3
:1013A4000CF582EE9BFEED9AFDEC99FC0FD5F0D680
:1013B400E4CEFBE4CDFAE4CCF9A88222B800C1B9AA
:1013C4000059BA002DEC8BF084CFCECDFCE5F0CBE8
:1013D400F97818EF2FFFEE33FEED33FDEC33FCEB21
:1013E40033FB10D703994004EB99FB0FD8E5E4F9DC
:1013F400FA227818EF2FFFEE33FEED33FDEC33FCC9
:10140400C933C910D7059BE99A4007EC9BFCE99ABC
:10141400F90FD8E0E4C9FAE4CCFB2275F010EF2F01
:10142400FFEE33FEED33FDCC33CCC833C810D70701
:101434009BEC9AE899400AED9BFDEC9AFCE899F83C
:0E1444000FD5F0DAE4CDFBE4CCFAE4C8F922CF
:0E145200C3E49FFFE49EFEE49DFDE49CFC22AB
:0C146000ECF608EDF608EEF608EFF622B8
:00000001FF
