:03000000020BD020
:0C0BD000787FE4F6D8FD75810B020BC3A2
:0B0BDC007714B3B6D4E6E734F7F60058
:0D0BC30075A001120B9830A0FDC2B480F99E
:100BAE00D3EF9400EE9400400B7D70DDFEEF1F70CE
:040BBE00EF1E80ECBA
:010BC2002210
:100B400085080A85090BD2A7E4FBAE0AAF0B7C002F
:100B50007D0ABB0315120A6574DC2DF582740B3C0B
:100B6000F583E4934408F5998011120A6574DC2D2D
:100B7000F582740B3CF583E493F599AE0AAF0B7CD8
:100B8000007D0A120A658E0A8F0B209904C2998093
:070B9000F90BBB08B5C2A779
:010B9700223B
:100B9800D2B4E4F598D288D2A8D2AFD2B77F01FEFA
:060BA800120BAEC2B722E1
:03000300020AC826
:100AC800C0E0C0F0C083C082C0D075D000C000C0F4
:100AD80001C002C003C004C005C006C007C2A8D236
:100AE800B4D2B5AC90E41209B0E4FBFA797A784450
:100AF800120800E4FBFA794C78421209091209E459
:100B08008E088F09C2B5120B407FE87E03120BAE28
:100B1800D2B77F017E00120BAEC2B7D2A8D007D0E1
:100B280006D005D004D003D002D001D000D0D0D058
:080B380082D083D0F0D0E0323E
:10080000EC4D6011E8497017ED33EC3304600DE4F2
:10081000FCFFFEFD22E933E8330470F8020A5012AF
:100820000A1B58046009E4CC2481500628500902B0
:100830000A5A284003020A57C0E0EB4A7044B980C4
:1008400006D0E0FB020A46EF4E701CBD8008EBFFAD
:10085000EAFEE9FD80EBE98DF0A4FEE5F00208E98F
:10086000E9CDF9EAFEEBFFEF89F0A4FCE5F0CE89D3
:10087000F0A42EFFE435F0CD89F0A42DFEE435F090
:100880008067EF4E7005BD80D780C3EF8BF0A4ACBE
:10089000F0EE8BF0A42CFCE435F0F8EF8AF0A42CF9
:1008A000E5F038FCE433CB8DF0A42CFCE5F03BF80C
:1008B000EE8AF0A42CFCE5F038F8E433CF89F0A4FC
:1008C0002CFCE5F038CF3400CE89F0A42FFFE5F002
:1008D0003EFEE433C98DF0A42EFEE5F039CD8AF05A
:1008E000A42FFFE5F03EFEE43DFD33D0E0FB5007D2
:1008F0000BBB000F020A5AEC2CFCEF33FFEE33FE69
:06090000ED33FD020A3296
:10090600020A5AEC5D046005E859047003020A50B5
:10091600120A1B580460F6EC4860F2EC7004FDFE07
:10092600FF22C860DB2481C85009C39860025006C4
:10093600020A579850CAF582E9294B4A7005AB82DC
:10094600020A4675F0007C1A7880C3EF9BEE9AED9A
:1009560099400DC3EF9BFFEE9AFEED99FDE842F03C
:10096600DC23ACF0D0E0FFD0E0FED0E0FDAB82208F
:10097600E7101BEB60BAEC2CFCEF33FFEE33FEED19
:1009860033FD020A32E803F830E705C0F075F000DF
:10099600EF2FFFEE33FEED33FD40B830E7C280AAFD
:1009A60075F020800E75F010800575F0087D007ECC
:1009B600007F003392D530D503120ABAEC334010CB
:1009C600EF33FFEE33FEED33FDEC33FCD5F0ED22D5
:0E09D600E5F0247EA2D513CC92E7CDCEFF2211
:1009E400EDD2E7CD33EC3392D524814006E4FFFE0B
:1009F400FDFC22FCE4CFCECDCC24E0501174FF806A
:100A0400EDC3CC13CCCD13CDCE13CECF13CF047006
:070A1400F030D5DE020ABA42
:100A1B00E9D2E7C933E833F892D5EDD2E7CD33EC21
:070A2B0033FC5002B2D5229A
:100A3200EC30E7100FBF000C0EBE00080DBD000425
:100A42000BEB6014A2D5EB13FCED92E7FD2274FFD1
:100A5200FCFDFEFF22E480F8A2D574FF13FC7D802A
:030A6200E480EF3E
:100A6500BC000BBE0029EF8DF084FFADF022E4CC75
:100A7500F875F008EF2FFFEE33FEEC33FCEE9DEC3E
:100A8500984005FCEE9DFE0FD5F0E9E4CEFD22ED84
:100A9500F8F5F0EE8420D21CFEADF075F008EF2FCE
:100AA500FFED33FD4007985006D5F0F222C398FDBF
:050AB5000FD5F0EA225C
:0E0ABA00C3E49FFFE49EFEE49DFDE49CFC224D
:00000001FF
