:030000000208B83B
:0C08B800787FE4F6D8FD75810D0208ABD6
:10089B003F065B4F666D7D077F6F777C395E7971A5
:0D08AB00120800E50D90089B93F5A080F366
:10080000E4F508F509750AEF750B0FF508F509E52C
:100810000A54F0450BF590E590540F640F603D7F4E
:100820000A7E0012087DE590540F640F602EE5905B
:10083000540F24F9602024FC601424FE6008147016
:100840001B85090D8016E5092404F50D800EE509C8
:100850002408F50D8006E509240CF50DAF0A780192
:10086000EF08800123D8FDF50A0509E509700205A6
:0C08700008C39404E50864809480409361
:01087C002259
:10087D00D3EF9400EE940040147D707C00ED1D705C
:0D088D00011CED4C70F7EF1F70E61E80E3BC
:01089A00223B
:00000001FF
