:0300000002116D7D
:0C116D00787FE4F6D8FD7581570211B4BC
:1012B100465245513A202020202020202020487AE3
:1012C10000202020202020202020202000445554D0
:1012D100593A0025002E00200043483A00202020E2
:1012E10000303132333435363738390001020408E1
:0412F1001020408009
:10133400C101202023000000000000000000000084
:101344000000000000000000000000000000000099
:1013540000000000000221070802560000014307B4
:03136400015164D0
:100D430012136812126A120FE3E557B4B008E5569E
:100D5300B40403121397300303020E53E5576405DB
:100D6300455670E5300239200033E54C25E025E097
:100D73002423F8120D2BE47B08FAF9F8120BEFA8E1
:100D830004A905AA06AB07E5439012ED93FFE4FC23
:100D9300FDFE120BEF8F478E468D458C44120FE3F9
:100DA300E5436050E54C25E025E02423F8120D2BA4
:100DB300E4120B177B007A6079EA7846120A9E5098
:100DC30028E54C25E025E02423F8120D2BE4120B33
:100DD300177B007A60796A7847120A9E5059E54377
:100DE300C39407505205438049E543D3940040021E
:100DF3001543803EE54C25E025E02423F8120D2B16
:100E0300E47B0CFAF9F8D3120D1A5031E54C25E0C6
:100E130025E02423F8120D2BE4120B177B007A60D4
:100E230079EA7846120A9E500EE543C394075002AE
:100E3300054312126A8009D202054C80031212F58F
:100E4300E54C64086003020D4CF54CD200020D4CD6
:100E5300200303020D4CE4F50830B5FD20B5FDD2A7
:100E63008C30B5FDAC56AD57E4120B1CE4FBFA799C
:100E73008078431208F8C004C005C006C007AC8AD6
:100E8300E4120B21D003D002D001D000120807E4F2
:100E9300FBFA798078C01208078F558E548D538CD6
:100EA3005220B5FDC28CAC56AD57E4120B1CE4FBCB
:100EB300FA798078431208F8C004C005C006C00759
:100EC300AC8AE4120B21D003D002D001D000120867
:100ED30007E4FBFA798078BF1208078F508E4F8D95
:100EE3004E8C4DAF55AE54AD53AC52AB50AA4FA937
:100EF3004EA84D120A018F558E548D538C527F008C
:100F03007E407D1B7C46AB55AA54A953A8521208B8
:100F1300F8A804A905AA06AB077F007E507DC37C11
:100F230047120803120B558F4B8E4A8D498C48ABE1
:100F330050AA4FA94EA84D7F507EA97DAB7C50127D
:100F43000A018F508E4F8D4E8C4D120B55E508259F
:100F5300E025E02423F8120D37E50825E025E024F9
:100F630023F8120D2BE4120B177B007A7C7992780D
:100F730049120A9E6002500512126A805E20001D0B
:100F8300E50825E025E02423F8120D2BE47B08FA7D
:100F9300F9F8120BEF8F478E468D458C44E4F58CA0
:100FA300F58AF556F557120FE3E50825E025E02409
:100FB30023F8120D2BE4120B177B007A5079437838
:100FC30048120A9E600250077F647E0012142305B4
:100FD30008E508C394085003020E5CD200020D4CCE
:101368007F3812144112141F7F0812144112141FDF
:101378007F0612144112141F12147A7F0C121441A2
:0F13880012141F7BFF7A1279B1E4FDFF0213CF1D
:10126A00E5431392B2E543A2E192B3A2E292B475C6
:10127A008952758C80758A80E4F58DF58BF556F563
:10128A0057D2AFD2A9D28CD28EF54CC200C202C2BA
:10129A00037F207823E4F608DFFC7BFF7A1279C209
:0712AA007D01E4FF0213CFF8
:1012F500758902C28CC28EE4F58CF58AD2A9D2AF6B
:10130500F556F557F54CC200C202D2037F2078236B
:10131500E4F608DFFC7BFF7A1279CE7D01E4FF124B
:0F13250013CF7BFF7A1279D47D017F0A0213CF99
:0D146D00C290D291C2A500D2A5E580332225
:0C147A007F01121441AF517E00021423C8
:1014410012146D40FBC290C2918F803099FDC299F8
:06145100D2A500C2A52295
:1014570012146D40FBD290C2918F803099FDC299D2
:06146700D2A500C2A5227F
:0913C6007BFF7A1279D8FDAF0912
:1013CF00AE07ED7005EE24808003EE24C0FF1214EB
:1013DF0041120BD6FF600C121457740129F9E43A2D
:0413EF00FA80EE2270
:1013F300120C7A74E22BF58274123AF583E493FBB0
:04140300E4FDAF094C
:10140700AE07AC03ED7005EE24808003EE24C0FF29
:08141700121441AF0402145746
:100FE300300048E4F509E50925E025E02423F8125B
:100FF3000D2BE5472FF547E5463EF546E5453DF51F
:1010030045E5443CF5440509E509B408D9AB47AACD
:1010130046A945A844E5439012ED93FFE4FCFDFE89
:10102300120BEF8F478E468D458C4475090C2003B8
:101033000302110BE509B4071A7BFF7A1279D6E490
:10104300FDAF091213CF7A1279D60DAF091213CF60
:1010530002114DE50964057057AF47AE46AD45AC87
:1010630044EC4D4E4F600BE47B0AFAF9F81213F38C
:101073008011AF47AE46AD45AC44EC4D4E4F7003C7
:101083001213C6AF4BAE4AAD49AC48EC4D4E4F6060
:1010930008E47B0AFAF9F8803DAF4BAE4AAD49ACA0
:1010A30048EC4D4E4F60030211341213C602113443
:1010B300E47B0AFAF9F8AF47AE46AD45AC441213E8
:1010C300F3E509C3940A5069E47B0AFAF9F8AF4BD4
:1010D300AE4AAD49AC48120C7A74E22BF582741215
:1010E3003AF583E493FB7D01AF09121407AF4BAECE
:1010F3004AAD49AC48E47B0AFAF9F8120C7A8F4BF3
:101103008E4A8D498C488029AF47AE46AD45AC44E5
:10111300EC4D4E4F6015E47B0AFAF9F8120C7A7421
:10112300E22BF58274123AF58380039012EC1214C9
:1011330000AF47AE46AD45AC44E47B0AFAF9F8127A
:101143000C7A8F478E468D458C441509E509C39467
:10115300054003021031E4F547F546F545F544F53E
:091163004BF54AF549F548C202BA
:01116C002260
:101397007BFF30010F7A1279DA7D017F0C1213CFB0
:1013A700C201800D7A1279DE7D017F0C1213CFD234
:0F13B70001E5439012E393FB7D017F0F021407C2
:04141F00AF517E004B
:10142300D3EF9400EE940040147D707C00ED1D70AA
:0D143300011CED4C70F7EF1F70E61E80E30A
:011440002289
:03000B000211F9E6
:1011F900C0E0C0F0C083C082C0D075D000C000C0BC
:1012090004C005C006C0070557E5577002055620FA
:10121900033A65227004E55665217030C28CC28E8E
:10122900F556F557AF8DEFFEAD8B7C00E42DFFEC45
:101239003EFEE4FDE54C25E025E02423F8120D37B8
:10124900058A758D00758B00D28ED28CD007D00699
:10125900D005D004D000D0D0D082D083D0F0D0E057
:011269003252
:10080000020BC1E86480F8E933E83360110460F05A
:10081000ED33EC337009E8FCE9FDEAFEEBFF22045E
:1008200060DED3EB9FEA9EE99DE8C2E78CF0C2F759
:1008300095F0400CE8CCF8E9CDF9EACEFAEBCFFB25
:10084000120B8C85D0F05804700320D5B3E80470E7
:10085000075002B2D5020BCB92D5EC0460F7E4CC82
:10086000C0E0C398F8603B94186008400DD0E0FBEE
:10087000020BA3E4FBFAC9FC8028E830E406E4C9D3
:10088000FBE4CAFCE830E305E4C9CACBFCE8540742
:100890006010F8C3E913F9EA13FAEB13FBEC13FC4D
:1008A000D8F130F52FC3E49CFCEF9BFFEE9AFEEDF0
:1008B00099FDD0E0FBEF4E4D4C701222DB03020B92
:1008C000C8EC2CFCEF33FFEE33FEED33FDED30E7EB
:1008D000EB020BA3EF2BFFEE3AFEED39FDD0E0FB70
:1008E00050130BBB0003020BCBED13FDEE13FEEF19
:0808F00013FFEC13FC020BA343
:1008F800EC4D6011E8497017ED33EC3304600DE4FA
:10090800FCFFFEFD22E933E8330470F8020BC11244
:100918000B8C58046009E4CC248150062850090245
:100928000BCB284003020BC8C0E0EB4A7044B980E7
:1009380006D0E0FB020BB7EF4E701CBD8008EBFF42
:10094800EAFEE9FD80EBE98DF0A4FEE5F00209E19D
:10095800E9CDF9EAFEEBFFEF89F0A4FCE5F0CE89DA
:10096800F0A42EFFE435F0CD89F0A42DFEE435F097
:100978008067EF4E7005BD80D780C3EF8BF0A4ACC5
:10098800F0EE8BF0A42CFCE435F0F8EF8AF0A42C00
:10099800E5F038FCE433CB8DF0A42CFCE5F03BF813
:1009A800EE8AF0A42CFCE5F038F8E433CF89F0A403
:1009B8002CFCE5F038CF3400CE89F0A42FFFE5F009
:1009C8003EFEE433C98DF0A42EFEE5F039CD8AF061
:1009D800A42FFFE5F03EFEE43DFD33D0E0FB5007D9
:1009E8000BBB000F020BCBEC2CFCEF33FFEE33FEFE
:0609F800ED33FD020BA32C
:1009FE00020BCBEC5D046005E859047003020BC1D9
:100A0E00120B8C580460F6EC4860F2EC7004FDFE9C
:100A1E00FF22C860DB2481C85009C39860025006CB
:100A2E00020BC89850CAF582E9294B4A7005AB8271
:100A3E00020BB775F0007C1A7880C3EF9BEE9AED2F
:100A4E0099400DC3EF9BFFEE9AFEED99FDE842F043
:100A5E00DC23ACF0D0E0FFD0E0FED0E0FDAB822096
:100A6E00E7101BEB60BAEC2CFCEF33FFEE33FEED20
:100A7E0033FD020BA3E803F830E705C0F075F00074
:100A8E00EF2FFFEE33FEED33FD40B830E7C280AA04
:100A9E0074F8CC6480CCC86480C8F58204604FC3FF
:100AAE00EB9FF5F0EA9E42F0E99D42F0E89C45F09E
:100ABE00603C501DE5825FFFE582D313CB5BCBF428
:100ACE002B5582FB50280ABA002409B90020088051
:100ADE001DE5825BFBE582D313CF5FCFF4C3132FEB
:100AEE005582FF50090EBE00050DBD00010CC3EB73
:100AFE009FF5F0EA9E42F0E99D42F0E89C45F060D9
:090B0E0007CC4820E701B3EC22FA
:100B170075F020800E75F010800575F0087D007E59
:100B2700007F003392D530D503120D0CEC33401003
:100B3700EF33FFEE33FEED33FDEC33FCD5F0ED2262
:0E0B4700E5F0247EA2D513CC92E7CDCEFF229E
:100B5500EDD2E7CD33EC3392D524814006E4FFFE98
:100B6500FDFC22FCE4CFCECDCC24E0501174FF80F7
:100B7500EDC3CC13CCCD13CDCE13CECF13CF047094
:070B8500F030D5DE020D0C7B
:100B8C00E9D2E7C933E833F892D5EDD2E7CD33ECAF
:070B9C0033FC5002B2D52228
:100BA300EC30E7100FBF000C0EBE00080DBD0004B3
:100BB3000BEB6014A2D5EB13FCED92E7FD2274FF5F
:100BC300FCFDFEFF22E480F8A2D574FF13FC7D80B8
:030BD300E480EFCC
:10117900020D43E493A3F8E493A34003F68001F23C
:1011890008DFF48029E493A3F85407240CC8C33377
:10119900C4540F4420C8834004F456800146F6DF46
:1011A900E4800B0102040810204080901334E47E8F
:1011B900019360BCA3FF543F30E509541FFEE4933B
:1011C900A360010ECF54C025E060A840B8E493A302
:1011D900FAE493A3F8E493A3C8C582C8CAC583CA2D
:1011E900F0A3C8C582C8CAC583CADFE9DEE780BEE5
:011367000085
:100BD600BB010689828A83E0225002E722BBFE021D
:090BE600E32289828A83E4932250
:100BEF00E88FF0A4CC8BF0A42CFCE98EF0A42CFCA5
:100BFF008AF0EDA42CFCEA8EF0A4CDA8F08BF0A423
:100C0F002DCC3825F0FDE98FF0A42CCD35F0FCEB81
:100C1F008EF0A4FEA9F0EB8FF0A4CFC5F02ECD3946
:0F0C2F00FEE43CFCEAA42DCE35F0FDE43CFC22B3
:100C3E0075F008758200EF2FFFEE33FECD33CDCC6D
:100C4E0033CCC58233C5829BED9AEC99E5829840F0
:100C5E000CF582EE9BFEED9AFDEC99FC0FD5F0D6CD
:100C6E00E4CEFBE4CDFAE4CCF9A88222B800C1B9F7
:100C7E000059BA002DEC8BF084CFCECDFCE5F0CB35
:100C8E00F97818EF2FFFEE33FEED33FDEC33FCEB6E
:100C9E0033FB10D703994004EB99FB0FD8E5E4F929
:100CAE00FA227818EF2FFFEE33FEED33FDEC33FC16
:100CBE00C933C910D7059BE99A4007EC9BFCE99A0A
:100CCE00F90FD8E0E4C9FAE4CCFB2275F010EF2F4F
:100CDE00FFEE33FEED33FDCC33CCC833C810D7074F
:100CEE009BEC9AE899400AED9BFDEC9AFCE899F88A
:0E0CFE000FD5F0DAE4CDFBE4CCFAE4C8F9221D
:0E0D0C00C3E49FFFE49EFEE49DFDE49CFC22F8
:100D1A00EB9FF5F0EA9E42F0E99D42F0E89C45F02F
:010D2A0022A6
:0C0D2B00E6FC08E6FD08E6FE08E6FF22F4
:0C0D3700ECF608EDF608EEF608EFF622E8
:00000001FF
