:03000000020800F3
:0C080000787FE4F6D8FD75810C020847F3
:04098F00020B000057
:10097E00D2AFD2A8D2AAD288D28AD2BA7590FF802C
:01098E00FB6D
:0300030002088C64
:10088C00C0E0C0F0C083C082C0D075D000C000C032
:10089C0001C002C003C004C005C006C007C2A875D1
:1008AC0008FE750900750A00850890AF087801EFFD
:1008BC0008800123D8FD12095A050AE50A700205C1
:1008CC0009C39408E509940040DED2A8D007D006ED
:1008DC00D005D004D003D002D001D000D0D0D0822B
:0708EC00D083D0F0D0E03210
:030013000208F3ED
:1008F300C0E0C0F0C083C082C0D075D000C000C0CB
:1009030001C002C003C004C005C006C007C2AA7567
:10091300087F750900750A00850890AF087801EF14
:1009230008800103D8FD12095A050AE50A70020579
:1009330009C39408E509940040DED2AAD007D00683
:10094300D005D004D003D002D001D000D0D0D082C3
:07095300D083D0F0D0E032A8
:06095A00F5087FF47E01A8
:10096000D3EF9400EE940040147D707C00ED1D7078
:0D097000011CED4C70F7EF1F70E61E80E3D8
:01097D002257
:10080C0002097EE493A3F8E493A34003F68001F27B
:10081C0008DFF48029E493A3F85407240CC8C333ED
:10082C00C4540F4420C8834004F456800146F6DFBC
:10083C00E4800B010204081020408090098FE47EB4
:10084C00019360BCA3FF543F30E509541FFEE493B1
:10085C00A360010ECF54C025E060A840B8E493A378
:10086C00FAE493A3F8E493A3C8C582C8CAC583CAA3
:10087C00F0A3C8C582C8CAC583CADFE9DEE780BE5B
:010993000063
:00000001FF
