:030000000208E112
:0C08E100787FE4F6D8FD7581090208005C
:0C08ED003F065B4F666D7D077F6F40BFCC
:100800007590F3E4F580F5A0A291B35006B291B2D1
:10081000958009A294B35004B294B2927508007501
:100820000904A292B3501274ED2509F582740835BB
:1008300008F583E493F5A08015A295B3501074EDEC
:100840002509F58274083508F583E493F5807FE87F
:100850007E031208C3E509150970021508D3E509DE
:100860009400E508940050BAA292B39008EDE49386
:100870005004F5A08002F580E4F508F509A293B3D1
:100880005004B2928007A290B35002B2957F647E6A
:10089000001208C30509E50970020508C39409E5BB
:1008A00008940040D8E4F5A0F580A293B35004B2B8
:1008B000918002B2947FD07E071208C3B290B293A7
:0308C00002080823
:1008C300D3EF9400EE940040147D707C00ED1D7016
:0D08D300011CED4C70F7EF1F70E61E80E376
:0108E00022F5
:00000001FF
