:0300000002099A58
:0C099A00787FE4F6D8FD7581200209E1A9
:100AAB003F065B4F666D7D077F6F40BF1F2F4F8FDC
:060ABB00C1000211000061
:10080000751300751405AE11AF127C007D64120AD9
:1008100026AC1BAD1C120A38C374649FF518E49E05
:10082000F517D3E5189463E5179400400675170093
:10083000751863AE13AF147C007D0A120A3874ABCE
:100840002FF582740A3EF583E493750900F50AAE2C
:1008500013AF147C007D0A120A3874AB2DF5827434
:100860000A3CF583E4934480750B00F50CAE17AF9A
:10087000187C007D0A120A3874AB2FF582740A3E88
:10088000F583E493750D00F50EAE17AF187C007D6F
:100890000A120A3874AB2DF582740A3CF583E4938E
:1008A000750F00F510E4F515F516AF16EF25E024E9
:1008B00009F808E6F580EF24F8F5A0300002D2B080
:1008C000C3E51C9512FFE51B9511FE120A8DE590FC
:1008D000F47003020959C2B07F147E00120A8DE53C
:1008E00090F46075E590650860FA859008E5082445
:1008F00081604F24C0603624E0601D24E1605824EC
:100900000F7056C3E512951CE511951B504B05124F
:10091000E512704505118041D3E5129400E511946C
:10092000004036E512151270301511802CD3E514F5
:100930009401E51394004021E5141514701B151360
:100940008017C3E5149463E5139400500C0514E577
:1009500014700605138002B200E4F580C2B0AF1235
:10096000AE11120A8D0516E51670020515D3940313
:10097000E515940050030208AA75B0FFE514AE1304
:100980007802C333CE33CED8F9FDAC067E277FC6BE
:0A099000120A388E1B8F1C020806A5
:100A8D00D3EF9400EE940040147D0B7C00ED1D70AF
:0D0A9D00011CED4C70F7EF1F70E61E80E3AA
:010AAA002229
:1009A600020800E493A3F8E493A34003F68001F25F
:1009B60008DFF48029E493A3F85407240CC8C33352
:1009C600C4540F4420C8834004F456800146F6DF21
:1009D600E4800B0102040810204080900ABBE47EEC
:1009E600019360BCA3FF543F30E509541FFEE49316
:1009F600A360010ECF54C025E060A840B8E493A3DD
:100A0600FAE493A3F8E493A3C8C582C8CAC583CA07
:100A1600F0A3C8C582C8CAC583CADFE9DEE780BEBF
:010AC1000034
:100A2600EF8DF0A4A8F0CF8CF0A428CE8DF0A42EE4
:020A3600FE229E
:100A3800BC000BBE0029EF8DF084FFADF022E4CCA2
:100A4800F875F008EF2FFFEE33FEEC33FCEE9DEC6B
:100A5800984005FCEE9DFE0FD5F0E9E4CEFD22EDB1
:100A6800F8F5F0EE8420D21CFEADF075F008EF2FFB
:100A7800FFED33FD4007985006D5F0F222C398FDEC
:050A88000FD5F0EA2289
:00000001FF
