:0300000002099F53
:0C099F00787FE4F6D8FD75811C0209E6A3
:100AB0003F065B4F666D7D077F6F40BF1F2F4F8FD7
:040AC000021100001F
:10080000751300751432AE11AF127C007D64120AAC
:100810002BAC1BAD1C120A3DC374649FF518E49EFB
:10082000F517D3E5189463E5179400400675170093
:10083000751863AE13AF147C007D0A120A3D74B0C4
:100840002FF582740A3EF583E493750900F50AAE2C
:1008500013AF147C007D0A120A3D74B02DF582742A
:100860000A3CF583E4934480750B00F50CAE17AF9A
:10087000187C007D0A120A3D74B02FF582740A3E7E
:10088000F583E493750D00F50EAE17AF187C007D6F
:100890000A120A3D74B02DF582740A3CF583E49384
:1008A000750F00F510E4F515F516E51625E0240999
:1008B000F808E6F58074BC2516F582740A3515F53E
:1008C00083E493F5A0C3E51C9512FFE51B9511FE8B
:1008D000120A92E4F580AF12AE11120A920516E5E3
:1008E0001670020515D39403E515940040BC75B04D
:1008F000FFE514AE137802C333CE33CED8F9FDAC86
:10090000067E277F10120A3D8E1B8F1CE5B0F47007
:10091000030208067FBC7E02120A92E5B0F470035F
:1009200002080685B008E5082481605A24C0603DAD
:1009300024E0602024F06003020806C3E512951C41
:10094000E511951B40030208060512E512701B0510
:1009500011020806D3E5129400E511940050030239
:100960000806E512151270021511020806D3E514E7
:100970009401E51394005003020806E51415147061
:10098000021513020806C3E5149463E513940040AE
:0F099000030208060514E5147002051302080699
:100A9200D3EF9400EE940040147D0B7C00ED1D70AA
:0D0AA200011CED4C70F7EF1F70E61E80E3A5
:010AAF002224
:1009AB00020800E493A3F8E493A34003F68001F25A
:1009BB0008DFF48029E493A3F85407240CC8C3334D
:1009CB00C4540F4420C8834004F456800146F6DF1C
:1009DB00E4800B0102040810204080900AC0E47EE2
:1009EB00019360BCA3FF543F30E509541FFEE49311
:1009FB00A360010ECF54C025E060A840B8E493A3D8
:100A0B00FAE493A3F8E493A3C8C582C8CAC583CA02
:100A1B00F0A3C8C582C8CAC583CADFE9DEE780BEBA
:010AC4000031
:100A2B00EF8DF0A4A8F0CF8CF0A428CE8DF0A42EDF
:020A3B00FE2299
:100A3D00BC000BBE0029EF8DF084FFADF022E4CC9D
:100A4D00F875F008EF2FFFEE33FEEC33FCEE9DEC66
:100A5D00984005FCEE9DFE0FD5F0E9E4CEFD22EDAC
:100A6D00F8F5F0EE8420D21CFEADF075F008EF2FF6
:100A7D00FFED33FD4007985006D5F0F222C398FDE7
:050A8D000FD5F0EA2284
:00000001FF
