:03000000020A9160
:0C0A9100787FE4F6D8FD75812302080090
:0C0A9D003F065B4F666D7D077F6F40BF1A
:10080000751200751301E4F50CF50DE4F50EF50F06
:10081000E4F510F511AF90EF244170030208C824ED
:10082000E070030208AB24F0606424F4604424FE0A
:1008300060241460030208E3D3E511943AE51094B0
:1008400000500B0511E511702005100208E3E4F5D6
:1008500010F5110208E3D3E50F943AE50E94005029
:100860000A050FE50F7002050E8078E4F50EF50F0E
:100870008071D3E50D9417E50C9400500A050DE541
:100880000D7060050C805CE4F50CF50D8055C3E53A
:10089000119402E5109400400AE5111511704415F9
:1008A00010804075100075113B8038C3E50F94012E
:1008B000E50E9400400AE50F150F7027150E8023F2
:1008C000750E00750F3B801BC3E50D9401E50C947C
:1008D00000400AE50D150D700A150C8006750C0018
:1008E000750D17AE0CAF0D7C007D0A120A1E749DAB
:1008F0002FF582740A3EF583E493751400F515AE66
:100900000CAF0D7C007D0A120A1E749D2DF58274B9
:100910000A3CF583E493751600F517900AA7E49353
:10092000FB7A008A18F519AE0EAF0F7C007D0A1213
:100930000A1E749D2FF582740A3EF583E493751A9E
:1009400000F51BAE0EAF0F7C007D0A120A1E749DCF
:100950002DF582740A3CF583E493751C00F51D8A1D
:100960001E8B1FAE10AF117C007D0A120A1E749DF3
:100970002FF582740A3EF583E493752000F521AECD
:1009800010AF117C007D0A120A1E749D2DF5827431
:100990000A3CF583E493752200F523E4F50AF50B90
:1009A000E4F508F509AF09EF25E02414F808E6F5A9
:1009B00080EF24F8F5A07F787E00120A730509E520
:1009C0000970020508D39407E508940040D7050B89
:1009D000E50B7002050AD39438E50A940040C1057E
:1009E00011E51170020510D3943BE51094005003FB
:1009F000020815050FE50F7002050ED3943BE50EB6
:100A000094005003020810050DE50D7002050CD38B
:0E0A10009418E50C9400500302080B0208062F
:100A7300D3EF9400EE940040147DC8D3ED648094CA
:0D0A83008040031D80F5EF1F70E61E80E32C
:010A90002243
:100A1E00BC000BBE0029EF8DF084FFADF022E4CCBC
:100A2E00F875F008EF2FFFEE33FEEC33FCEE9DEC85
:100A3E00984005FCEE9DFE0FD5F0E9E4CEFD22EDCB
:100A4E00F8F5F0EE8420D21CFEADF075F008EF2F15
:100A5E00FFED33FD4007985006D5F0F222C398FD06
:050A6E000FD5F0EA22A3
:00000001FF
