:03000000020800F3
:0C080000787FE4F6D8FD75810C020847F3
:0709DE0002090002010830CC
:10088C00750C051209C540FB12093F75B00F20B15C
:10089C00187F147E0012096D20B12730B1FDC3748E
:1008AC00809481501D0508801920B0167F147E009D
:1008BC0012096D20B00C30B0FDE508D39400400255
:1008CC001508AF081208F28F0BAF081208F28F0B45
:1008DC00850B08AB08E4FDFF12098BAB0B7D01E423
:0608EC00FF12098B80A839
:10093F007F381209A31209697F081209A3120969E6
:10094F007F061209A31209691209D27F0C1209A39B
:0A095F00120969D293C290C29722D8
:0D09C500C2A6D2A5C2A700D2A7E5803322AA
:0C09D2007F011209A3AF0AAE0902096DF3
:1009A3001209C540FBC2A6C2A58F80D2A700C2A769
:0109B3002221
:1009B4001209C540FBD2A6C2A58F80D2A700C2A748
:0109C4002210
:10098B00AE07AC03ED7005EE24808003EE24C0FFB0
:08099B001209A3AF040209B424
:0208F200AE074F
:1008F400E4FDC293FCC290EE30E704D2918002C2C0
:10090400917801AF06EF08800123D8FDFE00D29054
:10091400ECD39400401BD2977801AF05EF08800117
:1009240023D8FDFD30920543050180035305FEC223
:0A09340097000CBC09BFD293AF0579
:01093E002296
:04096900AF0AAE091A
:10096D00D3EF9400EE940040147D707C00ED1D706B
:0D097D00011CED4C70F7EF1F70E61E80E3CB
:01098A00224A
:10080C0002088CE493A3F8E493A34003F68001F26E
:10081C0008DFF48029E493A3F85407240CC8C333ED
:10082C00C4540F4420C8834004F456800146F6DFBC
:10083C00E4800B01020408102040809009DEE47E65
:10084C00019360BCA3FF543F30E509541FFEE493B1
:10085C00A360010ECF54C025E060A840B8E493A378
:10086C00FAE493A3F8E493A3C8C582C8CAC583CAA3
:10087C00F0A3C8C582C8CAC583CADFE9DEE780BE5B
:0109E5000011
:00000001FF
